:020000020000FC
:1000000000C00FEF04B90AB910E00E9425000E9459
:1000100049001A95D1F710E00E9447000E9449005C
:100020001A95D1F70E94510010E00E9436000E94FC
:1000300049001A95D1F710E00E9448000E9449003B
:100040001A95D1F70E945100DFCF09E005B90E944F
:100050004D000CE005B90E944D0006E005B90E9474
:100060004D0003E005B90E944D00089503E005B975
:100070000E944D0006E005B90E944D000CE005B954
:100080000E944D0009E005B90E944D0008950895B1
:10009000089522E32A95F1F7089528EC2A95F1F7BF
:1000A000089544E13FEF2FEF2A95F1F73A95D9F7FC
:0600B0004A95C1F7089516
:00000001FF
